:020000040800F2
:1000000000000220FD0A000813040008190400087B
:100010001F040008250400082B040008000000004D
:100020000000000000000000000000003104000893
:100030003F040008000000004D0400085B040008B5
:100040004D0B00084D0B00084D0B00084D0B000830
:100050004D0B00084D0B00084D0B00084D0B000820
:100060004D0B00084D0B00084D0B00084D0B000810
:100070004D0B00084D0B00084D0B00084D0B000800
:100080004D0B00084D0B00084D0B00080000000050
:100090000000000000000000000000004D0B000800
:1000A0004D0B00084D0B00084D0B00084D0B0008D0
:1000B0004D0B00084D0B00084D0B00084D0B0008C0
:1000C0004D0B00084D0B00084D0B00084D0B0008B0
:1000D0004D0B00084D0B00084D0B00080000000000
:1000E0004D0B00084D0B00084D0B000800000000F0
:1000F0000000000000000000000000004D0B0008A0
:10010000000000004D0B00084D0B00084D0B0008CF
:1001100000000000000000000000000000000000DF
:100120004D0B00084D0B00084D0B00084D0B00084F
:100130004D0B00080000000000000000000000005F
:100140000000000000000000000000004D0B00084F
:100150004D0B00084D0B00084D0B00084D0B00081F
:100160004D0B00084D0B00080000000000000000CF
:10017000000000000000000000000000000000007F
:10018000000000004D0B000800000000000000000F
:080190004D0B00084D0B0008A7
:100198000348044B834202D0034B03B1184770470E
:1001A8000C0000200C000020000000000548064B51
:1001B8001B1AD90F01EBA301491002D0034B03B15D
:1001C800184770470C0000200C00002000000000B9
:1001D80010B5064C237843B9FFF7DAFF044B13B187
:1001E8000448AFF300800123237010BD0C000020E9
:1001F80000000000980B000808B5054B1BB1054925
:100208000548AFF30080BDE80840FFF7CFBF00BF47
:100218000000000010000020980B000880B582B094
:1002280000AF00F0E3FB00F0E9F800F06DF800F033
:1002380043FC78600E4B1B780133DAB20C4B1A7012
:100248000B4B1B78184600F017F800F035FC3860A7
:100258003A687B68D31A40F295129342EAD34FF476
:100268000051044800F0C1FA3B687B60E2E700BF38
:10027800280000200008024080B582B000AF034685
:10028800FB71FB7903F00103DBB21A464FF480518E
:100298001B4800F091FAFB795B10DBB203F0010315
:1002A800DBB21A464FF40051154800F085FAFB7985
:1002B8009B10DBB203F00103DBB21A464FF4804116
:1002C8000F4800F079FAFB79DB10DBB203F0010389
:1002D800DBB21A464FF40041094800F06DFAFB7989
:1002E8001B11DBB203F00103DBB21A464FF4807135
:1002F800044800F061FA00BF0837BD4680BD00BF62
:10030800000402400000024080B588B000AF00231E
:10031800BB60364B1B6B354A43F002031363334B08
:100328001B6B03F00203BB60BB6807F10C030022E0
:100338001A605A609A60DA601A614FF47043FB6081
:1003480001233B6100237B610023BB6107F10C03A0
:100358001946274800F0ACF800237B60234B1B6B41
:10036800224A43F001031363204B1B6B03F0010384
:100378007B607B680123FB6000233B6102237B6178
:1003880007F10C0319461B4800F092F84FF48073EC
:10039800FB6001233B6100237B610023BB6107F104
:1003A8000C031946134800F083F800233B600F4BF9
:1003B8001B6B0E4A43F0040313630C4B1B6B03F0D7
:1003C80004033B603B684FF40053FB6001233B612F
:1003D80000237B610023BB6107F10C031946064823
:1003E80000F066F800BF2037BD4680BD00380240E7
:1003F80000040240000002400008024080B400AF40
:1004080000BFBD465DF8047B704780B400AFFEE7CF
:1004180080B400AFFEE780B400AFFEE780B400AF61
:10042800FEE780B400AFFEE780B400AF00BFBD4672
:100438005DF8047B704780B400AF00BFBD465DF82F
:10044800047B704780B400AF00BFBD465DF8047BF5
:10045800704780B500AF00F01BFB00BF80BD0000F7
:1004680080B483B000AF00237B60104B5B6C0F4AF5
:1004780043F4804353640D4B5B6C03F480437B600F
:100488007B6800233B60094B1B6C084A43F0805390
:100498001364064B1B6C03F080533B603B6800BF42
:1004A8000C37BD465DF8047B704700BF003802403A
:1004B80080B489B000AF7860396000237B61002385
:1004C8003B610023BB610023FB6159E10122FB6909
:1004D80002FA03F37B613B681B687A6913403B614E
:1004E8003A697B699A4240F048813B685B6803F04F
:1004F8000303012B05D03B685B6803F00303022B61
:1005080030D17B689B68BB61FB695B00032202FA00
:1005180003F3DB43BA691340BB613B68DA68FB69E4
:100528005B0002FA03F3BA691343BB617B68BA69DB
:100538009A607B685B68BB610122FB6902FA03F37E
:10054800DB43BA691340BB613B685B681B0903F076
:100558000102FB6902FA03F3BA691343BB617B68C2
:10056800BA695A603B685B6803F00303032B17D032
:100578007B68DB68BB61FB695B00032202FA03F35B
:10058800DB43BA691340BB613B689A68FB695B004F
:1005980002FA03F3BA691343BB617B68BA69DA608C
:1005A8003B685B6803F00303022B23D1FB69DA087D
:1005B8007B68083253F82230BB61FB6903F00703FC
:1005C8009B000F2202FA03F3DB43BA691340BB61B5
:1005D8003B681A69FB6903F007039B0002FA03F3FF
:1005E800BA691343BB61FB69DA087B680832B969E9
:1005F80043F822107B681B68BB61FB695B00032220
:1006080002FA03F3DB43BA691340BB613B685B68DA
:1006180003F00302FB695B0002FA03F3BA691343B0
:10062800BB617B68BA691A603B685B6803F4403356
:10063800002B00F0A2800023FB60574B5B6C564AEE
:1006480043F480435364544B5B6C03F48043FB6076
:10065800FB68524AFB699B08023352F82330BB619E
:10066800FB6903F003039B000F2202FA03F3DB4349
:10067800BA691340BB617B68494A934219D07B68C9
:10068800484A934213D07B68474A93420DD07B680F
:10069800464A934207D07B68454A934201D10423D6
:1006A80008E0072306E0032304E0022302E0012315
:1006B80000E00023FA6902F0030292009340BA694D
:1006C8001343BB613549FB699B080233BA6941F89A
:1006D8002320384B9B68BB613B69DB43BA691340F5
:1006E800BB613B685B6803F48013002B03D0BA69D5
:1006F8003B691343BB612F4ABB6993602D4BDB6891
:10070800BB613B69DB43BA691340BB613B685B680B
:1007180003F40013002B03D0BA693B691343BB6190
:10072800244ABB69D360234B5B68BB613B69DB43ED
:10073800BA691340BB613B685B6803F40033002B64
:1007480003D0BA693B691343BB611A4ABB6953605A
:10075800184B1B68BB613B69DB43BA691340BB613B
:100768003B685B6803F48033002B03D0BA693B69AC
:100778001343BB610F4ABB691360FB690133FB611B
:10078800FB690F2B7FF6A2AE00BF00BF2437BD4622
:100798005DF8047B704700BF003802400038014014
:1007A800000002400004024000080240000C024021
:1007B80000100240003C014080B483B000AF786074
:1007C8000B467B8013467B707B78002B03D07A889E
:1007D8007B689A6103E07B881A047B689A6100BF92
:1007E8000C37BD465DF8047B704780B485B000AF18
:1007F80078600B467B807B685B69FB607A88FB6866
:1008080013401A04FB68D9437B880B401A437B6862
:100818009A6100BF1437BD465DF8047B704700003D
:1008280080B485B000AF78607B6803F00703FB6095
:100838000C4BDB68BB60BA684FF6FF031340BB6024
:10084800FB681A02BB68134343F0BF6343F40033E9
:10085800BB60044ABB68D36000BF1437BD465DF86F
:10086800047B704700ED00E080B400AF044BDB6808
:100878001B0A03F007031846BD465DF8047B704762
:1008880000ED00E080B483B000AF03463960FB712F
:1008980097F90730002B0ADB3B68DAB20C4997F965
:1008A80007301201D2B20B4483F800230AE03B68F8
:1008B800DAB20849FB7903F00F03043B1201D2B204
:1008C8000B441A7600BF0C37BD465DF8047B7047B1
:1008D80000E100E000ED00E080B489B000AFF8600E
:1008E800B9607A60FB6803F00703FB61FB69C3F139
:1008F8000703042B28BF0423BB61FB690433062BC1
:1009080002D9FB69033B00E000237B614FF0FF3213
:10091800BB6902FA03F3DA43BB681A407B699A4061
:100928004FF0FF317B6901FA03F3D9437B680B4031
:10093800134318462437BD465DF8047B7047000012
:1009480080B582B000AF78607B68013BB3F1807FEF
:1009580001D301230FE00A4A7B68013B53600F2152
:100968004FF0FF30FFF78EFF054B00229A60044BD3
:1009780007221A60002318460837BD4680BD00BF0D
:1009880010E000E080B582B000AF78607868FFF7CB
:1009980047FF00BF0837BD4680BD80B586B000AFB1
:1009A8000346B9607A60FB7300237B61FFF75CFF45
:1009B80078617A68B9687869FFF78EFF024697F917
:1009C8000F3011461846FFF75DFF00BF1837BD46C8
:1009D80080BD80B582B000AF78607868FFF7B0FF5F
:1009E800034618460837BD4680BD000080B500AFF5
:1009F8000E4B1B680D4A43F4007313600B4B1B68C6
:100A08000A4A43F480631360084B1B68074A43F49F
:100A1800807313600320FFF7B5FF0F2000F008F87C
:100A2800FFF71EFD0023184680BD00BF003C0240B2
:100A380080B582B000AF7860124B1A68124B1B78F1
:100A480019464FF47A73B3FBF1F3B2FBF3F318468C
:100A5800FFF7BFFF0346002B01D001230EE07B68A0
:100A68000F2B0AD8002279684FF0FF30FFF795FF67
:100A7800064A7B681360002300E001231846083704
:100A8800BD4680BD080000200400002000000020B2
:100A980080B400AF064B1B781A46064B1B681344FC
:100AA800044A136000BFBD465DF8047B704700BF71
:100AB800040000202C00002080B400AF034B1B680A
:100AC8001846BD465DF8047B704700BF2C00002027
:100AD80080B400AF064BD3F88830054A43F470035E
:100AE800C2F8883000BFBD465DF8047B704700BF80
:100AF80000ED00E0DFF834D00D480E490E4A00231F
:100B080002E0D458C4500433C4188C42F9D30B4AB9
:100B18000B4C002301E013600432A242FBD3FFF721
:100B2800D7FF00F011F8FFF779FB704700000220AB
:100B3800000000200C000020B80B00080C0000206A
:100B480030000020FEE7000070B50D4D0D4C641B11
:100B5800A4100026A64209D10B4D0C4C00F018F841
:100B6800641BA4100026A64205D170BD55F8043BAD
:100B780098470136EEE755F8043B98470136F2E707
:100B8800B00B0008B00B0008B00B0008B40B00084D
:100B9800F8B500BFF8BC08BC9E467047F8B500BF62
:080BA800F8BC08BC9E46704732
:040BB0000102000836
:040BB400D90100085B
:0C0BB80010000000010000000024F40008
:0400000508000AFDE8
:00000001FF
